{
  "contractName": "PortMayor",
  "abi": [
    {
      "constant": false,
      "inputs": [
        {
          "name": "token",
          "type": "address"
        }
      ],
      "name": "reclaimToken",
      "outputs": [],
      "payable": false,
      "stateMutability": "nonpayable",
      "type": "function"
    },
    {
      "constant": false,
      "inputs": [
        {
          "name": "ticket",
          "type": "uint256"
        },
        {
          "name": "signature",
          "type": "bytes"
        }
      ],
      "name": "attend",
      "outputs": [],
      "payable": false,
      "stateMutability": "nonpayable",
      "type": "function"
    },
    {
      "constant": false,
      "inputs": [
        {
          "name": "newMayor",
          "type": "address"
        }
      ],
      "name": "electNewMayor",
      "outputs": [],
      "payable": false,
      "stateMutability": "nonpayable",
      "type": "function"
    },
    {
      "constant": false,
      "inputs": [
        {
          "name": "eventAddress",
          "type": "address"
        }
      ],
      "name": "createEvent",
      "outputs": [],
      "payable": false,
      "stateMutability": "nonpayable",
      "type": "function"
    },
    {
      "constant": true,
      "inputs": [],
      "name": "owner",
      "outputs": [
        {
          "name": "",
          "type": "address"
        }
      ],
      "payable": false,
      "stateMutability": "view",
      "type": "function"
    },
    {
      "constant": false,
      "inputs": [],
      "name": "reclaimEther",
      "outputs": [],
      "payable": false,
      "stateMutability": "nonpayable",
      "type": "function"
    },
    {
      "constant": true,
      "inputs": [
        {
          "name": "eventAddress",
          "type": "address"
        },
        {
          "name": "ticket",
          "type": "uint256"
        }
      ],
      "name": "isTicketUsed",
      "outputs": [
        {
          "name": "",
          "type": "bool"
        }
      ],
      "payable": false,
      "stateMutability": "view",
      "type": "function"
    },
    {
      "constant": true,
      "inputs": [
        {
          "name": "eventAddress",
          "type": "address"
        },
        {
          "name": "who",
          "type": "address"
        }
      ],
      "name": "attended",
      "outputs": [
        {
          "name": "",
          "type": "bool"
        }
      ],
      "payable": false,
      "stateMutability": "view",
      "type": "function"
    },
    {
      "constant": true,
      "inputs": [
        {
          "name": "eventAddress",
          "type": "address"
        }
      ],
      "name": "isEventActive",
      "outputs": [
        {
          "name": "",
          "type": "bool"
        }
      ],
      "payable": false,
      "stateMutability": "view",
      "type": "function"
    },
    {
      "constant": false,
      "inputs": [
        {
          "name": "newOwner",
          "type": "address"
        }
      ],
      "name": "transferOwnership",
      "outputs": [],
      "payable": false,
      "stateMutability": "nonpayable",
      "type": "function"
    },
    {
      "inputs": [
        {
          "name": "portCoinAddress",
          "type": "address"
        }
      ],
      "payable": false,
      "stateMutability": "nonpayable",
      "type": "constructor"
    },
    {
      "payable": false,
      "stateMutability": "nonpayable",
      "type": "fallback"
    },
    {
      "anonymous": false,
      "inputs": [
        {
          "indexed": false,
          "name": "attendee",
          "type": "address"
        },
        {
          "indexed": false,
          "name": "ticket",
          "type": "uint256"
        },
        {
          "indexed": false,
          "name": "eventAddress",
          "type": "address"
        }
      ],
      "name": "Attend",
      "type": "event"
    },
    {
      "anonymous": false,
      "inputs": [
        {
          "indexed": false,
          "name": "eventAddress",
          "type": "address"
        }
      ],
      "name": "EventCreated",
      "type": "event"
    },
    {
      "anonymous": false,
      "inputs": [
        {
          "indexed": true,
          "name": "previousOwner",
          "type": "address"
        },
        {
          "indexed": true,
          "name": "newOwner",
          "type": "address"
        }
      ],
      "name": "OwnershipTransferred",
      "type": "event"
    }
  ],
  "bytecode": "0x6060604052341561000f57600080fd5b60405160208061110383398101604052808051906020019091905050336000806101000a81548173ffffffffffffffffffffffffffffffffffffffff021916908373ffffffffffffffffffffffffffffffffffffffff16021790555060003414151561007a57600080fd5b80600160006101000a81548173ffffffffffffffffffffffffffffffffffffffff021916908373ffffffffffffffffffffffffffffffffffffffff16021790555050611038806100cb6000396000f3006060604052600436106100a4576000357c0100000000000000000000000000000000000000000000000000000000900463ffffffff16806317ffc320146100b15780632af3636b146100ea578063394218b114610150578063787b8d47146101895780638da5cb5b146101c25780639f727c27146102175780639fd3c9131461022c578063a9a484d914610286578063aae19b69146102f6578063f2fde38b14610347575b34156100af57600080fd5b005b34156100bc57600080fd5b6100e8600480803573ffffffffffffffffffffffffffffffffffffffff16906020019091905050610380565b005b34156100f557600080fd5b61014e600480803590602001909190803590602001908201803590602001908080601f016020809104026020016040519081016040528093929190818152602001838380828437820191505050505050919050506104ed565b005b341561015b57600080fd5b610187600480803573ffffffffffffffffffffffffffffffffffffffff16906020019091905050610962565b005b341561019457600080fd5b6101c0600480803573ffffffffffffffffffffffffffffffffffffffff16906020019091905050610a90565b005b34156101cd57600080fd5b6101d5610ba9565b604051808273ffffffffffffffffffffffffffffffffffffffff1673ffffffffffffffffffffffffffffffffffffffff16815260200191505060405180910390f35b341561022257600080fd5b61022a610bce565b005b341561023757600080fd5b61026c600480803573ffffffffffffffffffffffffffffffffffffffff16906020019091908035906020019091905050610ca0565b604051808215151515815260200191505060405180910390f35b341561029157600080fd5b6102dc600480803573ffffffffffffffffffffffffffffffffffffffff1690602001909190803573ffffffffffffffffffffffffffffffffffffffff16906020019091905050610cfa565b604051808215151515815260200191505060405180910390f35b341561030157600080fd5b61032d600480803573ffffffffffffffffffffffffffffffffffffffff16906020019091905050610d8e565b604051808215151515815260200191505060405180910390f35b341561035257600080fd5b61037e600480803573ffffffffffffffffffffffffffffffffffffffff16906020019091905050610de4565b005b60008060009054906101000a900473ffffffffffffffffffffffffffffffffffffffff1673ffffffffffffffffffffffffffffffffffffffff163373ffffffffffffffffffffffffffffffffffffffff161415156103dd57600080fd5b8173ffffffffffffffffffffffffffffffffffffffff166370a08231306000604051602001526040518263ffffffff167c0100000000000000000000000000000000000000000000000000000000028152600401808273ffffffffffffffffffffffffffffffffffffffff1673ffffffffffffffffffffffffffffffffffffffff168152602001915050602060405180830381600087803b151561048057600080fd5b6102c65a03f1151561049157600080fd5b5050506040518051905090506104e96000809054906101000a900473ffffffffffffffffffffffffffffffffffffffff16828473ffffffffffffffffffffffffffffffffffffffff16610f399092919063ffffffff16565b5050565b60008073__ECRecovery____________________________6319045a258560405180828152602001915050604051809103902060405180807f19457468657265756d205369676e6564204d6573736167653a0a333200000000815250601c0182600019166000191681526020019150506040518091039020856000604051602001526040518363ffffffff167c010000000000000000000000000000000000000000000000000000000002815260040180836000191660001916815260200180602001828103825283818151815260200191508051906020019080838360005b838110156105e85780820151818401526020810190506105cd565b50505050905090810190601f1680156106155780820380516001836020036101000a031916815260200191505b50935050505060206040518083038186803b151561063257600080fd5b6102c65a03f4151561064357600080fd5b50505060405180519050915060008273ffffffffffffffffffffffffffffffffffffffff161415151561067557600080fd5b61067e82610d8e565b151561068957600080fd5b6101008410151561069957600080fd5b6106a38285610ca0565b1515156106af57600080fd5b600360008373ffffffffffffffffffffffffffffffffffffffff1673ffffffffffffffffffffffffffffffffffffffff16815260200190815260200160002060003373ffffffffffffffffffffffffffffffffffffffff1673ffffffffffffffffffffffffffffffffffffffff16815260200190815260200160002060009054906101000a900460ff1615151561074557600080fd5b8360020a600102905080600460008473ffffffffffffffffffffffffffffffffffffffff1673ffffffffffffffffffffffffffffffffffffffff1681526020019081526020016000205417600460008473ffffffffffffffffffffffffffffffffffffffff1673ffffffffffffffffffffffffffffffffffffffff16815260200190815260200160002081905550600160009054906101000a900473ffffffffffffffffffffffffffffffffffffffff1673ffffffffffffffffffffffffffffffffffffffff1663867904b43360016000604051602001526040518363ffffffff167c0100000000000000000000000000000000000000000000000000000000028152600401808373ffffffffffffffffffffffffffffffffffffffff1673ffffffffffffffffffffffffffffffffffffffff16815260200182815260200192505050602060405180830381600087803b15156108a157600080fd5b6102c65a03f115156108b257600080fd5b50505060405180519050507fb87d95017bfd4d2c7762c0dd8e773598f46ab94ea44476ddc7be9afa9c861e76338584604051808473ffffffffffffffffffffffffffffffffffffffff1673ffffffffffffffffffffffffffffffffffffffff1681526020018381526020018273ffffffffffffffffffffffffffffffffffffffff1673ffffffffffffffffffffffffffffffffffffffff168152602001935050505060405180910390a150505050565b6000809054906101000a900473ffffffffffffffffffffffffffffffffffffffff1673ffffffffffffffffffffffffffffffffffffffff163373ffffffffffffffffffffffffffffffffffffffff161415156109bd57600080fd5b600160009054906101000a900473ffffffffffffffffffffffffffffffffffffffff1673ffffffffffffffffffffffffffffffffffffffff1663394218b1826040518263ffffffff167c0100000000000000000000000000000000000000000000000000000000028152600401808273ffffffffffffffffffffffffffffffffffffffff1673ffffffffffffffffffffffffffffffffffffffff168152602001915050600060405180830381600087803b1515610a7957600080fd5b6102c65a03f11515610a8a57600080fd5b50505050565b6000809054906101000a900473ffffffffffffffffffffffffffffffffffffffff1673ffffffffffffffffffffffffffffffffffffffff163373ffffffffffffffffffffffffffffffffffffffff16141515610aeb57600080fd5b6001600260008373ffffffffffffffffffffffffffffffffffffffff1673ffffffffffffffffffffffffffffffffffffffff16815260200190815260200160002060006101000a81548160ff0219169083151502179055507ffc8a4c0621b9788c4dbe57053a51ce2d22625a067d039f38004df2a07ca755a481604051808273ffffffffffffffffffffffffffffffffffffffff1673ffffffffffffffffffffffffffffffffffffffff16815260200191505060405180910390a150565b6000809054906101000a900473ffffffffffffffffffffffffffffffffffffffff1681565b6000809054906101000a900473ffffffffffffffffffffffffffffffffffffffff1673ffffffffffffffffffffffffffffffffffffffff163373ffffffffffffffffffffffffffffffffffffffff16141515610c2957600080fd5b6000809054906101000a900473ffffffffffffffffffffffffffffffffffffffff1673ffffffffffffffffffffffffffffffffffffffff166108fc3073ffffffffffffffffffffffffffffffffffffffff16319081150290604051600060405180830381858888f193505050501515610c9e57fe5b565b6000808260020a6001029050600181600460008773ffffffffffffffffffffffffffffffffffffffff1673ffffffffffffffffffffffffffffffffffffffff16815260200190815260200160002054161191505092915050565b6000600360008473ffffffffffffffffffffffffffffffffffffffff1673ffffffffffffffffffffffffffffffffffffffff16815260200190815260200160002060008373ffffffffffffffffffffffffffffffffffffffff1673ffffffffffffffffffffffffffffffffffffffff16815260200190815260200160002060009054906101000a900460ff16905092915050565b6000600260008373ffffffffffffffffffffffffffffffffffffffff1673ffffffffffffffffffffffffffffffffffffffff16815260200190815260200160002060009054906101000a900460ff169050919050565b6000809054906101000a900473ffffffffffffffffffffffffffffffffffffffff1673ffffffffffffffffffffffffffffffffffffffff163373ffffffffffffffffffffffffffffffffffffffff16141515610e3f57600080fd5b600073ffffffffffffffffffffffffffffffffffffffff168173ffffffffffffffffffffffffffffffffffffffff1614151515610e7b57600080fd5b8073ffffffffffffffffffffffffffffffffffffffff166000809054906101000a900473ffffffffffffffffffffffffffffffffffffffff1673ffffffffffffffffffffffffffffffffffffffff167f8be0079c531659141344cd1fd0a4f28419497f9722a3daafe3b4186f6b6457e060405160405180910390a3806000806101000a81548173ffffffffffffffffffffffffffffffffffffffff021916908373ffffffffffffffffffffffffffffffffffffffff16021790555050565b8273ffffffffffffffffffffffffffffffffffffffff1663a9059cbb83836000604051602001526040518363ffffffff167c0100000000000000000000000000000000000000000000000000000000028152600401808373ffffffffffffffffffffffffffffffffffffffff1673ffffffffffffffffffffffffffffffffffffffff16815260200182815260200192505050602060405180830381600087803b1515610fe457600080fd5b6102c65a03f11515610ff557600080fd5b50505060405180519050151561100757fe5b5050505600a165627a7a723058209a707d3f79234904404caa4bb43577ab92078a4ae0f69f965cc649528a0bf6b00029",
  "source": "pragma solidity ^0.4.18;\n\nimport 'zeppelin-solidity/contracts/ownership/Ownable.sol';\nimport 'zeppelin-solidity/contracts/ownership/HasNoEther.sol';\nimport 'zeppelin-solidity/contracts/ownership/CanReclaimToken.sol';\nimport 'zeppelin-solidity/contracts/ECRecovery.sol';\n\nimport './PortCoin.sol';\n\ncontract PortMayor is Ownable, HasNoEther, CanReclaimToken {\n\n  PortCoin coin;\n  mapping(address => bool) activeEvents;\n  mapping(address => mapping(address => bool)) seen;\n  mapping(address => uint256) ticketsClaimed;\n\n  event Attend(address attendee, uint256 ticket, address eventAddress);\n  event EventCreated(address eventAddress);\n\n  function PortMayor(address portCoinAddress) public {\n    coin = PortCoin(portCoinAddress);\n  }\n\n  function isEventActive(address eventAddress) view public returns (bool){\n    return activeEvents[eventAddress];\n  }\n\n  function isTicketUsed(address eventAddress, uint256 ticket) view public returns (bool){\n    uint256 shifted = uint256(0x1 * uint256(2) ** ticket);\n    return (ticketsClaimed[eventAddress] & shifted) > 1;\n  }\n\n  function attended(address eventAddress, address who) view public returns (bool){\n    return seen[eventAddress][who];\n  }\n\n  function electNewMayor(address newMayor) onlyOwner public {\n    coin.electNewMayor(newMayor);\n  }\n\n  function createEvent(address eventAddress) onlyOwner public {\n    activeEvents[eventAddress] = true;\n    EventCreated(eventAddress);\n  }\n\n  function attend(uint256 ticket, bytes signature) public {\n    // Docs say \"\\x19Ethereum Signed Message:\\n\"+message.length + message is how web3.eth.accounts.sign formats the message\n    address eventAddress = ECRecovery.recover(keccak256(\"\\x19Ethereum Signed Message:\\n32\",keccak256(ticket)),signature);\n    require(eventAddress!=0x0);\n    require(isEventActive(eventAddress));\n    require(ticket<256);\n    require(!isTicketUsed(eventAddress, ticket));\n    require(!seen[eventAddress][msg.sender]);\n    uint256 shifted = uint256(0x1 * uint256(2) ** ticket);\n    ticketsClaimed[eventAddress]=ticketsClaimed[eventAddress] | shifted;\n    coin.issue(msg.sender, 1);\n    Attend(msg.sender, ticket, eventAddress);\n\n  }\n}\n",
  "sourcePath": "/Users/pete/meetup/PORT/contracts/PortMayor.sol",
  "compiler": {
    "name": "solc",
    "version": "0.4.18+commit.9cf6e910.Emscripten.clang"
  },
  "schemaVersion": "1.0.1",
  "updatedAt": "2018-01-12T14:42:15.915Z"
}