{
  "contractName": "PortMayor",
  "abi": [
    {
      "constant": false,
      "inputs": [
        {
          "name": "token",
          "type": "address"
        }
      ],
      "name": "reclaimToken",
      "outputs": [],
      "payable": false,
      "stateMutability": "nonpayable",
      "type": "function"
    },
    {
      "constant": true,
      "inputs": [
        {
          "name": "eventAddress",
          "type": "address"
        },
        {
          "name": "ticket",
          "type": "uint8"
        }
      ],
      "name": "isValidTicket",
      "outputs": [
        {
          "name": "",
          "type": "bool"
        }
      ],
      "payable": false,
      "stateMutability": "view",
      "type": "function"
    },
    {
      "constant": false,
      "inputs": [
        {
          "name": "newMayor",
          "type": "address"
        }
      ],
      "name": "electNewMayor",
      "outputs": [],
      "payable": false,
      "stateMutability": "nonpayable",
      "type": "function"
    },
    {
      "constant": false,
      "inputs": [
        {
          "name": "eventAddress",
          "type": "address"
        }
      ],
      "name": "createEvent",
      "outputs": [],
      "payable": false,
      "stateMutability": "nonpayable",
      "type": "function"
    },
    {
      "constant": false,
      "inputs": [
        {
          "name": "to",
          "type": "address"
        },
        {
          "name": "quantity",
          "type": "uint256"
        }
      ],
      "name": "issue",
      "outputs": [],
      "payable": false,
      "stateMutability": "nonpayable",
      "type": "function"
    },
    {
      "constant": true,
      "inputs": [],
      "name": "owner",
      "outputs": [
        {
          "name": "",
          "type": "address"
        }
      ],
      "payable": false,
      "stateMutability": "view",
      "type": "function"
    },
    {
      "constant": false,
      "inputs": [],
      "name": "reclaimEther",
      "outputs": [],
      "payable": false,
      "stateMutability": "nonpayable",
      "type": "function"
    },
    {
      "constant": false,
      "inputs": [
        {
          "name": "ticket",
          "type": "uint8"
        },
        {
          "name": "r",
          "type": "bytes32"
        },
        {
          "name": "s",
          "type": "bytes32"
        },
        {
          "name": "v",
          "type": "uint8"
        }
      ],
      "name": "attend",
      "outputs": [],
      "payable": false,
      "stateMutability": "nonpayable",
      "type": "function"
    },
    {
      "constant": true,
      "inputs": [
        {
          "name": "v",
          "type": "uint8"
        }
      ],
      "name": "stringify",
      "outputs": [
        {
          "name": "ret",
          "type": "string"
        }
      ],
      "payable": false,
      "stateMutability": "pure",
      "type": "function"
    },
    {
      "constant": true,
      "inputs": [
        {
          "name": "eventAddress",
          "type": "address"
        }
      ],
      "name": "isEvent",
      "outputs": [
        {
          "name": "",
          "type": "bool"
        }
      ],
      "payable": false,
      "stateMutability": "view",
      "type": "function"
    },
    {
      "constant": false,
      "inputs": [
        {
          "name": "newOwner",
          "type": "address"
        }
      ],
      "name": "transferOwnership",
      "outputs": [],
      "payable": false,
      "stateMutability": "nonpayable",
      "type": "function"
    },
    {
      "inputs": [
        {
          "name": "portCoinAddress",
          "type": "address"
        }
      ],
      "payable": false,
      "stateMutability": "nonpayable",
      "type": "constructor"
    },
    {
      "payable": false,
      "stateMutability": "nonpayable",
      "type": "fallback"
    },
    {
      "anonymous": false,
      "inputs": [
        {
          "indexed": true,
          "name": "attendee",
          "type": "address"
        },
        {
          "indexed": false,
          "name": "ticket",
          "type": "uint256"
        },
        {
          "indexed": true,
          "name": "eventAddress",
          "type": "address"
        }
      ],
      "name": "Attend",
      "type": "event"
    },
    {
      "anonymous": false,
      "inputs": [
        {
          "indexed": false,
          "name": "eventAddress",
          "type": "address"
        }
      ],
      "name": "EventCreated",
      "type": "event"
    },
    {
      "anonymous": false,
      "inputs": [
        {
          "indexed": true,
          "name": "previousOwner",
          "type": "address"
        },
        {
          "indexed": true,
          "name": "newOwner",
          "type": "address"
        }
      ],
      "name": "OwnershipTransferred",
      "type": "event"
    }
  ],
  "bytecode": "0x6060604052341561000f57600080fd5b60405160208061127c83398101604052808051906020019091905050336000806101000a81548173ffffffffffffffffffffffffffffffffffffffff021916908373ffffffffffffffffffffffffffffffffffffffff16021790555060003414151561007a57600080fd5b80600160006101000a81548173ffffffffffffffffffffffffffffffffffffffff021916908373ffffffffffffffffffffffffffffffffffffffff160217905550506111b1806100cb6000396000f3006060604052600436106100af576000357c0100000000000000000000000000000000000000000000000000000000900463ffffffff16806317ffc320146100bc57806318d10021146100f5578063394218b114610152578063787b8d471461018b578063867904b4146101c45780638da5cb5b146102065780639f727c271461025b578063cf0e416f14610270578063e5a0af37146102bc578063e5face611461035b578063f2fde38b146103ac575b34156100ba57600080fd5b005b34156100c757600080fd5b6100f3600480803573ffffffffffffffffffffffffffffffffffffffff169060200190919050506103e5565b005b341561010057600080fd5b610138600480803573ffffffffffffffffffffffffffffffffffffffff1690602001909190803560ff16906020019091905050610552565b604051808215151515815260200191505060405180910390f35b341561015d57600080fd5b610189600480803573ffffffffffffffffffffffffffffffffffffffff169060200190919050506105a6565b005b341561019657600080fd5b6101c2600480803573ffffffffffffffffffffffffffffffffffffffff169060200190919050506106d4565b005b34156101cf57600080fd5b610204600480803573ffffffffffffffffffffffffffffffffffffffff169060200190919080359060200190919050506107dd565b005b341561021157600080fd5b610219610925565b604051808273ffffffffffffffffffffffffffffffffffffffff1673ffffffffffffffffffffffffffffffffffffffff16815260200191505060405180910390f35b341561026657600080fd5b61026e61094a565b005b341561027b57600080fd5b6102ba600480803560ff16906020019091908035600019169060200190919080356000191690602001909190803560ff16906020019091905050610a1c565b005b34156102c757600080fd5b6102e0600480803560ff16906020019091905050610d32565b6040518080602001828103825283818151815260200191508051906020019080838360005b83811015610320578082015181840152602081019050610305565b50505050905090810190601f16801561034d5780820380516001836020036101000a031916815260200191505b509250505060405180910390f35b341561036657600080fd5b610392600480803573ffffffffffffffffffffffffffffffffffffffff16906020019091905050610eea565b604051808215151515815260200191505060405180910390f35b34156103b757600080fd5b6103e3600480803573ffffffffffffffffffffffffffffffffffffffff16906020019091905050610f35565b005b60008060009054906101000a900473ffffffffffffffffffffffffffffffffffffffff1673ffffffffffffffffffffffffffffffffffffffff163373ffffffffffffffffffffffffffffffffffffffff1614151561044257600080fd5b8173ffffffffffffffffffffffffffffffffffffffff166370a08231306000604051602001526040518263ffffffff167c0100000000000000000000000000000000000000000000000000000000028152600401808273ffffffffffffffffffffffffffffffffffffffff1673ffffffffffffffffffffffffffffffffffffffff168152602001915050602060405180830381600087803b15156104e557600080fd5b6102c65a03f115156104f657600080fd5b50505060405180519050905061054e6000809054906101000a900473ffffffffffffffffffffffffffffffffffffffff16828473ffffffffffffffffffffffffffffffffffffffff1661108a9092919063ffffffff16565b5050565b6000808260ff1660020a600260008673ffffffffffffffffffffffffffffffffffffffff1673ffffffffffffffffffffffffffffffffffffffff168152602001908152602001600020541611905092915050565b6000809054906101000a900473ffffffffffffffffffffffffffffffffffffffff1673ffffffffffffffffffffffffffffffffffffffff163373ffffffffffffffffffffffffffffffffffffffff1614151561060157600080fd5b600160009054906101000a900473ffffffffffffffffffffffffffffffffffffffff1673ffffffffffffffffffffffffffffffffffffffff1663394218b1826040518263ffffffff167c0100000000000000000000000000000000000000000000000000000000028152600401808273ffffffffffffffffffffffffffffffffffffffff1673ffffffffffffffffffffffffffffffffffffffff168152602001915050600060405180830381600087803b15156106bd57600080fd5b6102c65a03f115156106ce57600080fd5b50505050565b6000809054906101000a900473ffffffffffffffffffffffffffffffffffffffff1673ffffffffffffffffffffffffffffffffffffffff163373ffffffffffffffffffffffffffffffffffffffff1614151561072f57600080fd5b6001600003600260008373ffffffffffffffffffffffffffffffffffffffff1673ffffffffffffffffffffffffffffffffffffffff168152602001908152602001600020819055507ffc8a4c0621b9788c4dbe57053a51ce2d22625a067d039f38004df2a07ca755a481604051808273ffffffffffffffffffffffffffffffffffffffff1673ffffffffffffffffffffffffffffffffffffffff16815260200191505060405180910390a150565b6000809054906101000a900473ffffffffffffffffffffffffffffffffffffffff1673ffffffffffffffffffffffffffffffffffffffff163373ffffffffffffffffffffffffffffffffffffffff1614151561083857600080fd5b600160009054906101000a900473ffffffffffffffffffffffffffffffffffffffff1673ffffffffffffffffffffffffffffffffffffffff1663867904b483836000604051602001526040518363ffffffff167c0100000000000000000000000000000000000000000000000000000000028152600401808373ffffffffffffffffffffffffffffffffffffffff1673ffffffffffffffffffffffffffffffffffffffff16815260200182815260200192505050602060405180830381600087803b151561090557600080fd5b6102c65a03f1151561091657600080fd5b50505060405180519050505050565b6000809054906101000a900473ffffffffffffffffffffffffffffffffffffffff1681565b6000809054906101000a900473ffffffffffffffffffffffffffffffffffffffff1673ffffffffffffffffffffffffffffffffffffffff163373ffffffffffffffffffffffffffffffffffffffff161415156109a557600080fd5b6000809054906101000a900473ffffffffffffffffffffffffffffffffffffffff1673ffffffffffffffffffffffffffffffffffffffff166108fc3073ffffffffffffffffffffffffffffffffffffffff16319081150290604051600060405180830381858888f193505050501515610a1a57fe5b565b60006001610a2986610d32565b60405180807f19457468657265756d205369676e6564204d6573736167653a0a330000000000815250601b0182805190602001908083835b602083101515610a865780518252602082019150602081019050602083039250610a61565b6001836020036101000a0380198251168184511680821785525050505050509050019150506040518091039020838686604051600081526020016040526000604051602001526040518085600019166000191681526020018460ff1660ff16815260200183600019166000191681526020018260001916600019168152602001945050505050602060405160208103908084039060008661646e5a03f11515610b2e57600080fd5b5050602060405103519050610b438186610552565b1515610b4e57600080fd5b8460ff1660020a600260008373ffffffffffffffffffffffffffffffffffffffff1673ffffffffffffffffffffffffffffffffffffffff1681526020019081526020016000205418600260008373ffffffffffffffffffffffffffffffffffffffff1673ffffffffffffffffffffffffffffffffffffffff16815260200190815260200160002081905550600160009054906101000a900473ffffffffffffffffffffffffffffffffffffffff1673ffffffffffffffffffffffffffffffffffffffff1663867904b43360016000604051602001526040518363ffffffff167c0100000000000000000000000000000000000000000000000000000000028152600401808373ffffffffffffffffffffffffffffffffffffffff1673ffffffffffffffffffffffffffffffffffffffff16815260200182815260200192505050602060405180830381600087803b1515610ca757600080fd5b6102c65a03f11515610cb857600080fd5b50505060405180519050508073ffffffffffffffffffffffffffffffffffffffff163373ffffffffffffffffffffffffffffffffffffffff167fb87d95017bfd4d2c7762c0dd8e773598f46ab94ea44476ddc7be9afa9c861e7687604051808260ff16815260200191505060405180910390a35050505050565b610d3a61115d565b610d42611171565b6003604051805910610d515750595b9080825280601f01601f19166020018201604052509050600a60648460ff16811515610d7957fe5b0460ff16811515610d8657fe5b066030017f010000000000000000000000000000000000000000000000000000000000000002816000815181101515610dbb57fe5b9060200101907effffffffffffffffffffffffffffffffffffffffffffffffffffffffffffff1916908160001a905350600a808460ff16811515610dfb57fe5b0460ff16811515610e0857fe5b066030017f010000000000000000000000000000000000000000000000000000000000000002816001815181101515610e3d57fe5b9060200101907effffffffffffffffffffffffffffffffffffffffffffffffffffffffffffff1916908160001a905350600a8360ff16811515610e7c57fe5b066030017f010000000000000000000000000000000000000000000000000000000000000002816002815181101515610eb157fe5b9060200101907effffffffffffffffffffffffffffffffffffffffffffffffffffffffffffff1916908160001a90535080915050919050565b600080600260008473ffffffffffffffffffffffffffffffffffffffff1673ffffffffffffffffffffffffffffffffffffffff16815260200190815260200160002054119050919050565b6000809054906101000a900473ffffffffffffffffffffffffffffffffffffffff1673ffffffffffffffffffffffffffffffffffffffff163373ffffffffffffffffffffffffffffffffffffffff16141515610f9057600080fd5b600073ffffffffffffffffffffffffffffffffffffffff168173ffffffffffffffffffffffffffffffffffffffff1614151515610fcc57600080fd5b8073ffffffffffffffffffffffffffffffffffffffff166000809054906101000a900473ffffffffffffffffffffffffffffffffffffffff1673ffffffffffffffffffffffffffffffffffffffff167f8be0079c531659141344cd1fd0a4f28419497f9722a3daafe3b4186f6b6457e060405160405180910390a3806000806101000a81548173ffffffffffffffffffffffffffffffffffffffff021916908373ffffffffffffffffffffffffffffffffffffffff16021790555050565b8273ffffffffffffffffffffffffffffffffffffffff1663a9059cbb83836000604051602001526040518363ffffffff167c0100000000000000000000000000000000000000000000000000000000028152600401808373ffffffffffffffffffffffffffffffffffffffff1673ffffffffffffffffffffffffffffffffffffffff16815260200182815260200192505050602060405180830381600087803b151561113557600080fd5b6102c65a03f1151561114657600080fd5b50505060405180519050151561115857fe5b505050565b602060405190810160405280600081525090565b6020604051908101604052806000815250905600a165627a7a72305820b06367e9801dbdb411c9b5d7472a2df88a793a2a866f59a9a970b70f9590413d0029",
  "source": "pragma solidity ^0.4.18;\n\nimport 'zeppelin-solidity/contracts/ownership/Ownable.sol';\nimport 'zeppelin-solidity/contracts/ownership/HasNoEther.sol';\nimport 'zeppelin-solidity/contracts/ownership/CanReclaimToken.sol';\n\nimport './PortCoin.sol';\n\ncontract PortMayor is Ownable, HasNoEther, CanReclaimToken {\n\n  PortCoin coin;\n  mapping(address => uint256) tickets;\n\n  event Attend(address indexed attendee, uint256 ticket, address indexed eventAddress);\n  event EventCreated(address eventAddress);\n\n  function PortMayor(address portCoinAddress) public {\n    coin = PortCoin(portCoinAddress);\n  }\n\n  function electNewMayor(address newMayor) onlyOwner public {\n    coin.electNewMayor(newMayor);\n  }\n\n  function isEvent(address eventAddress) view public returns (bool) {\n    return tickets[eventAddress] > 0;\n  }\n\n  function isValidTicket(address eventAddress, uint8 ticket) view public returns (bool){\n    return (tickets[eventAddress] & (uint256(2) ** ticket)) > 0;\n  }\n\n  function createEvent(address eventAddress) onlyOwner public {\n    tickets[eventAddress] = uint256(0) - 1; // fill with 1s\n    EventCreated(eventAddress);\n  }\n\n  function stringify(uint8 v) public pure returns (string ret) {\n    bytes memory data = new bytes(3);\n    data[0] = bytes1(48 + (v / 100) % 10);\n    data[1] = bytes1(48 + (v / 10) % 10);\n    data[2] = bytes1(48 + v % 10);\n    return string(data);\n  }\n\n  function attend(uint8 ticket, bytes32 r, bytes32 s, uint8 v) public {\n    address eventAddress = ecrecover(keccak256(\"\\x19Ethereum Signed Message:\\n3\",stringify(ticket)),v,r,s);\n    require(isValidTicket(eventAddress, ticket));\n    tickets[eventAddress] = tickets[eventAddress] ^ (uint256(2) ** ticket);\n    coin.issue(msg.sender, 1);\n    Attend(msg.sender, ticket, eventAddress);\n  }\n\n  function issue(address to, uint quantity) public onlyOwner {\n    coin.issue(to, quantity);\n  }\n}\n",
  "sourcePath": "/Users/pete/meetup/PORT/contracts/PortMayor.sol",
  "compiler": {
    "name": "solc",
    "version": "0.4.18+commit.9cf6e910.Emscripten.clang"
  },
  "schemaVersion": "1.0.1",
  "updatedAt": "2018-01-17T14:44:27.636Z"
}